:200000000C9462000C948A000C948A000C948A000C948A000C948A000C948A000C948A00B8
:200020000C948A000C948A000C948A000C948A000C948A000C948A000C948A000C948A0070
:200040000C94500A0C948A000C94C00A0C949A0A0C948A000C948A000C948A000C948A0026
:200060000C9425090C948A0000000009000302000004050800000000000000000000000069
:20008000000000250028002B0000000000240027002A000404040404040404020202020249
:2000A0000203030303030302020301020408102040800102040810200102040810204080E8
:2000C0004000F20A11241FBECFEFD8E0DEBFCDBF11E0A0E0B1E0E2E6FDE402C005900D9292
:2000E000AE3AB107D9F726E0AEEAB1E001C01D92A436B207E1F710E0C2E6D0E004C02197C2
:20010000FE010E94E222C136D107C9F70E948E0C0C94AF260C94000091E090933002809381
:20012000520210923102109253020895109228041092290410922A0410922B0410922C04F2
:2001400010922D0410922E0410922F041092300410923104109232041092330410923404EB
:200160001092350410923604109237041092380410923904089590E0FC01E655FF4F2491E6
:200180008D569F4FFC018491882399F090E0880F991FFC01E757FF4FA591B491FC01E1584F
:2001A000FF4F859194918FB7F894EC91E22BEC938FBF08952091DB01260F3327331F21322F
:2001C0003105ECF420912A02FC0190E080E0243069F082E00895A091DB012191AC014754AC
:2001E0005E4FA40FB52FB11D2C930196861798F38091DB01680F6093DB0180E0089581E0DE
:200200000895089508950895E091010280910002E81730F4F0E0EE5FFD4F808190E0089549
:200220008FEF9FEF089590910102809100022FEF3FEF981748F4E92FF0E0EE5FFD4F208185
:2002400030E09F5F90930102C90108958091000290910102891B990B0895CF92DF92EF9294
:20026000FF920F931F93CF93DF937C01CB018A0120913002222389F0EB016B01C40ED51E33
:20028000CC15DD0569F06991D701ED91FC910190F081E02DC7010995F3CF642F0E94DA001F
:2002A000C801DF91CF911F910F91FF90EF90DF90CF900895CF93DF931F92CDB7DEB7698352
:2002C000209130022223F9F020915302203258F021E030E0FC013383228390E080E00F9095
:2002E000DF91CF91089580913102E82FF0E0EE5CFD4F998190838F5F809331028093530207
:2003000081E090E0ECCF61E0CE0101960E94DA00F7CF682F84E592E00C945A0190E0FC018E
:20032000E859FF4F2491FC01E655FF4F3491FC01ED56FF4FE491EE23C9F0222339F024309F
:2003400001F1A8F4223069F1233079F1F0E0EE0FFF1FE158FF4FA591B4918FB7F894EC916A
:20036000611126C030953E233C938FBF0895283071F0293091F0253049F7809180008F7D80
:2003800003C0809180008F7780938000DFCF8091B0008F778093B000D9CF8091B0008F7DC3
:2003A000F9CF84B58F7784BDD1CF84B58F7DFBCF3E2BDACFCF93DF93EC0186E00E94BB00B0
:2003C00061E0219709F060E086E0DF91CF910C948E01CF93DF93EC0187E00E94BB0061E0C0
:2003E000219709F060E087E0DF91CF910C948E01CF93DF93D82FC62F87E00E94BB0086E0AC
:200400000E94BB006D2F87E00E948E016C2F86E0DF91CF910C948E0110922A0281E0809309
:2004200029021092220261E082E10E948E0161E083E10E948E01E9EBF0E080818E7F80836B
:2004400080818D7F808388E48093B80085E48093BC000895CF93DF9391E09093B8018823B4
:20046000B9F0C091B800D091BA008091BC008A7B8093BC0060E082E10E948E0160E083E196
:200480000E948E010E940C02D093BA00C093B800DF91CF910895880F991F880F991F0597AC
:2004A0000197F1F708953FB7F8948091B4019091B501A091B601B091B70126B5A89B05C03C
:2004C0002F3F19F00196A11DB11D3FBFBA2FA92F982F8827BC01CD01620F711D811D911D77
:2004E00042E0660F771F881F991F4A95D1F70895CF92DF92EF92FF920F931F93CF93DF9320
:20050000D091530281E0D13208F097C0C09152020E9453026B017C0180912A02811167C0F7
:2005200082E080932A0281E0809329028FEF8093280282E392E090932702809326021092C0
:200540002502D09324021092230280912302CC0FC82BC093230280912202813009F07CC08D
:2005600010922202809123028093BB0080912C0290912D02A0912E02B0912F02892B8A2BE6
:200580008B2BA1F00E94530200912C0210912D0220912E0230912F026C197D098E099F0971
:2005A000061717072807390708F442C08091BC0083FDD8CF85EC8093BC000E9453026B01FC
:2005C0007C0180912A02823009F448C0809128028F3F09F465C080912802803209F462C073
:2005E00080912802803309F45FC084E026C080912C0290912D02A0912E02B0912F02892B91
:200600008A2B8B2B09F488CF0E94530200912C0210912D0220912E0230912F026C197D09B7
:200620008E099F09061717072807390708F074CF80912B020E942A0285E0109231021092AE
:20064000530210923002DF91CF911F910F91FF90EF90DF90CF90089585EEADCF80912C02AA
:2006600090912D02A0912E02B0912F02892B8A2B8B2B09F4A6CF0E94530200912C0210916F
:200680002D0220912E0230912F026C197D098E099F09061717072807390708F092CFC8CF74
:2006A00080E0CBCF82E0C9CF83E0C7CF8F929F92AF92BF92CF92DF92EF92FF924B015C01DC
:2006C0000E9453026B017C010E9453026C197D098E099F09683E734081059105A8F321E0E8
:2006E000821A9108A108B10888EEC80E83E0D81EE11CF11C81149104A104B10429F7FF9081
:20070000EF90DF90CF90BF90AF909F908F9008950F931F93CF93DF93EA010E948C0085E469
:2007200090E00E9489018D2F90E00E9489018C2F90E00E948901812F90E00E948901802F73
:2007400090E00E9489010E9478026AE070E080E090E0DF91CF911F910F910C9456030E94BC
:200760008C0082E490E00E94890190E080E00E94890190E080E00E9489010E9478026AE08D
:2007800070E080E090E00C9456030F931F93CF93DF938B01C0E4D0E0019711F0C1E4D0E04A
:2007A00085E00E948C00CE010E948901C8010E9489010E9478026AE070E080E090E0DF91C0
:2007C000CF911F910F910C9456030E948C008EE490E00E9489010E9478026AE070E080E01E
:2007E00090E00C9456032FB7F8946091B0017091B1018091B2019091B3012FBF0895AF9264
:20080000BF92CF92DF92EF92FF920F931F93CF93DF936C017B018B01040F151FEB015E0174
:20082000AE18BF08C017D10759F06991D601ED91FC910190F081E02DC6010995892B79F7BF
:20084000C501DF91CF911F910F91FF90EF90DF90CF90BF90AF90089590E080E00895FC0141
:20086000538D448D252F30E0842F90E0821B930B541710F0CF96089501970895FC01918D48
:20088000828D981761F0A28DAE0FBF2FB11D5D968C91928D9F5F9F73928F90E008958FEFB6
:2008A0009FEF0895FC01918D828D981731F0828DE80FF11D858D90E008958FEF9FEF089537
:2008C000FC01918D228D892F90E0805C9F4F821B91098F739927089580E692E00E946004E8
:2008E00021E0892B09F420E0822F089580E090E0892B29F00E946C0481110C94000008957A
:20090000FC01A48DA80FB92FB11DA35ABF4F2C91848D90E001968F739927848FA689B78918
:200920002C93A089B1898C91837080648C93938D848D981306C00288F389E02D80818F7DC0
:2009400080830895EF92FF920F931F93CF93DF93EC0181E0888F9B8D8C8D98131AC0E88921
:20096000F989808185FF15C09FB7F894EE89FF896083E889F98980818370806480839FBFAB
:2009800081E090E0DF91CF911F910F91FF90EF900895F62E0B8D10E00F5F1F4F0F73112779
:2009A000E02E8C8D8E110CC00FB607FCFACFE889F989808185FFF5CFCE010E948004F1CF23
:2009C000EB8DEC0FFD2FF11DE35AFF4FF0829FB7F8940B8FEA89FB8980818062CFCFCF9317
:2009E000DF93EC01888D8823B9F0AA89BB89E889F9898C9185FD03C0808186FD0DC00FB64D
:200A000007FCF7CF8C9185FFF2CF808185FFEDCFCE010E948004E9CFDF91CF910895CF92EF
:200A2000DF92EF92FF92CF93C62F843127E0920710F083E197E08C3A910510F48CEA90E066
:200A4000B0E0A0E0BC01CD01605E7340810991090E94042420E030EC4CE454E40E945A23F9
:200A60006B017C0120E030E040E85FEB0E94552387FD1EC020E030E040E85FE3C701B60196
:200A80000E94B424181634F4C12CD12C90E8E92E9FE3F92ECC2321F0F7FAF094F7F8F0947C
:200AA000C701B601CF91FF90EF90DF90CF900895C12CD12C80E8E82E8FEBF82EEBCFCF93BA
:200AC000DF93EC01888190E00E94AF03898190E0DF91CF910C94AF038C392FEF920714F4CA
:200AE0008CE99FEF8536910514F084E690E09C012F5F3F4F2330310590F09B0177FF03C02D
:200B0000319521953109DC010E94B02224E630E040E050E00E949122CA01B901089520E0ED
:200B200030E0A901F9CF08958B5B9F4F0895CF92DF92EF92FF921F93CF93DF936C0123E447
:200B4000C20ED11CF6012081222399F1EC0182E58CBD1DBC60E08A810E948E0184E090E0AB
:200B60000E944B027E01F3E0EF0EF11C10E0F70181917F018EBD00000DB407FEFDCF8EB590
:200B8000F701878F1F3121F088E090E00E944B021F5F103261F784E090E00E944B0261E003
:200BA0008A810E948E01F6011082CC5BDF4F81E08883DF91CF911F91FF90EF90DF90CF9053
:200BC00008951F93CF93DF93EC018AE00E94BB0061E08AE00E948E018A810E94BB0061E0B9
:200BE0008A810E948E011FB7F8948091AE01811124C0EDE9F0E08491E4EBF0E09491E82F8B
:200C0000F0E0EE0FFF1FE757FF4FA591B491EC91E92321F461E08AE00E948E018AE00E945C
:200C2000BB008CB580618CBD8CB580648CBD8DE00E94BB008BE00E94BB008091AE018F5FE0
:200C40008093AE011FBFFE01ED5BFF4F1082CC5BDF4F1882DF91CF911F910895FC01680F4D
:200C6000791F8FEF9FEF2191922728E0AC01880F991F57FF04C031E2832730E1932721504E
:200C8000A9F7E617F70779F70895CF93DF93CDB7DEB76C970FB6F894DEBF0FBECDBFFE0176
:200CA000379696E1DF011D929A95E9F791E099839C8392E09D838A8380918D0391E0980F4E
:200CC00090938D038E831B8248876115710539F0442329F050E0CE0109960E94A626809132
:200CE000620390916303DC01ED91FC910084F185E02DBE016F5F7F4F09956C960FB6F894CD
:200D0000DEBF0FBECDBFDF91CF910895CF92DF92EF92FF920F931F93CF93DF93EC0109E48A
:200D200010E06130710511F00AE410E08C2F0E948C00C8010E9489010E9478020E945302EC
:200D40006B017C0180912A02811162C081E080932A02809329029FEF9093280222E032E0EC
:200D600030932702209326021092250293E0909324028093230280912302CC0FDD1FC82BEF
:200D8000C093230280912202813009F0A7C0109222020E9453026B017C01809123028093A6
:200DA000BB0080912C0290912D02A0912E02B0912F02892B8A2B8B2B99F00E9453020091E6
:200DC0002C0210912D0220912E0230912F026C197D098E099F090617170728073907C8F195
:200DE0008091BC0083FDD9CF85EC8093BC000E9453026B017C0180912A02813009F470C0C3
:200E000080912502843008F08DC08091250226C080912C0290912D02A0912E02B0912F0221
:200E2000892B8A2B8B2B09F48DCF0E94530200912C0210912D0220912E0230912F026C195C
:200E40007D098E099F09061717072807390708F079CF80912B020E942A0280E010920102D2
:200E60008093000284E592E00E941301C82F84E592E00E941301182F84E592E00E9413016C
:200E8000D82F84E592E00E9413014C2F50E070E060E0762F652F542F4427410F511D611D1C
:200EA000711D762F652F542F44274D0F511D611D711D762F652F542F44278A019B01080F42
:200EC000111D211D311DC901B801DF91CF911F910F91FF90EF90DF90CF90089585EE85CF75
:200EE00080912C0290912D02A0912E02B0912F02892B8A2B8B2B09F47ECF0E94530200919F
:200F00002C0210912D0220912E0230912F026C197D098E099F09061717072807390708F014
:200F20006ACF97CF84E09ACF85ED8093BC0080912C0290912D02A0912E02B0912F02079605
:200F4000A11DB11D23E0B695A795979587952A95D1F72091BC0024FD03C010922A020895F0
:200F600040912C0250912D0260912E0270912F02452B462B472B69F30097A105B10541F03C
:200F80002AE22A95F1F700C00197A109B109E1CF80912B020C942A02EF92FF920F931F93C2
:200FA000CF93DF93EC018C010D5B1F4FD8018C918823A9F0CB5ADF4F88819981AA81BB81F6
:200FC0000196A11DB11D88839983AA83BB8380E0DF91CF911F910F91FF90EF900895FB0135
:200FE0009781953178F0CF5ADF4F488159816A817B814F5F5F4F6F4F7F4F488359836A834E
:201000007B83E6CF7E0183E0E80EF11C80E2D7011D928A95E9F785EA8B8380818C838181C1
:201020008D8382818E8383818F83848188878581898786818A8787818B87478150E0685F5B
:201040007F4FCE010C960E94A6266DE170E0C7010E942E0698A389A381E0F8018083CB5BBD
:20106000DF4F88819981AA81BB810196A11DB11D88839983AA83BB8381E0AACFEF92FF9217
:201080000F931F93CF93DF93EC018881853AA9F58B01ED8C8E8DFE2CE82E6DE170E0CE0108
:2010A0000E942E06E816F90641F54885453128F58981F80180838A8181838B8182838C8194
:2010C00083838D8184838E8185838F8186834783C801089624E1FC0111922A95E9F750E020
:2010E000BE01675F7F4F0E94A62681E0DF91CF911F910F91FF90EF90089580E0F7CF9F92AC
:20110000AF92BF92CF92DF92EF92FF920F931F93CF93DF93CDB7DEB7A0970FB6F894DEBFF3
:201120000FBECDBF7C01FC01EC5BFF4F8081882309F459C06B01108287010B5B1F4F5701D3
:2011400083E2A80EB11CC5010E943E0881116AC099249394DE01119620E0CD01E22FE90DFE
:20116000EF71EA0DFB2DF11D30813D932F5F2032A9F7B6010E943E08811119C0939490E23E
:201180009912E8CF0115110571F1F70193A1F801953AD9F540855185628573854F5F5F4FC7
:2011A0006F4F7F4F40875187628773871CC001151105C9F0F80144815581668177814F5F3F
:2011C0005F4F6F4F7F4F4483558366837783448D558D668D778D4F5F5F4F6F4F7F4F448FEE
:2011E000558F668F778FA0960FB6F894DEBF0FBECDBFDF91CF911F910F91FF90EF90DF90F6
:20120000CF90BF90AF909F90089544855585668577854F5F5F4F6F4F7F4F4487558766870F
:201220007787E1CF01151105F1F2F80144815581668177814F5F5F4F6F4F7F4F44835583F7
:2012400066837783D0CF0C941D261F920F920FB60F9211242F933F934F935F936F937F93C0
:201260008F939F93AF93BF93EF93FF938091B900887F803609F44AC0F0F5883209F4A7C0E1
:2012800018F5803109F49BC0B8F4882309F405C1883009F494C0FF91EF91BF91AF919F9145
:2012A0008F917F916F915F914F913F912F910F900FBE0F901F901895883109F488C0803287
:2012C00051F78093280214C0803409F4A5C040F48033B9F38833F9F68093280285ECBCC038
:2012E000803509F489C0883509F49EC0883499F60E949407D0CF883909F494C038F58837B6
:2013000029F050F4883611F0803729F683E080932A021092FF0157C0883809F483C08039C7
:2013200019F0803809F0B7CF8091FF01803208F079C0E091FF0181E08E0F8093FF018091E6
:20134000BB00F0E0E152FE4F80833DC0803B39F0E0F4803A09F485C0883A09F09CCF84E044
:2013600080932A021092DC011092DB01E091D901F091DA0109958091DB0181110FC081E03D
:201380008093DB011092B90109C0803C09F4A6CF883C09F4A3CF883B09F07DCFE091DC0182
:2013A00081E08E0F8093DC01F0E0E754FE4F80818093BB009091DC018091DB0131C080912B
:2013C00023028093BB0085EC8093BC0064CF90912502809124029817B8F580912602909172
:2013E0002702E091250221E02E0F20932502E80FF92FF11D8081E5CF20912602309127026F
:20140000E091250281E08E0F809325028091BB00E20FF32FF11D808390912502809124028D
:20142000981788F285E8D0CF2091260230912702E091250281E08E0F809325028091BB0018
:20144000E20FF32FF11D808380912902811150CF81E08093220284EA8093BC0010922A02D8
:201460001ACF85EC8093BC0010922A028091FF01803230F4E091FF01F0E0E152FE4F10823B
:201480006091FF0170E0E091DD01F091DE018FED91E009951092FF01FECE1092280228CFA0
:2014A0001F920F920FB60F9211242F933F938F939F93AF93BF938091B0019091B101A091FD
:2014C000B201B091B3013091AF0123E0230F2D3768F126E8230F0296A11DB11D2093AF013A
:2014E0008093B0019093B101A093B201B093B3018091B4019091B501A091B601B091B701F8
:201500000196A11DB11D8093B4019093B501A093B601B093B701BF91AF919F918F913F9172
:201520002F910F900FBE0F901F9018950196A11DB11DD4CF1F920F920FB60F9211242F930F
:201540003F934F935F936F937F938F939F93AF93BF93EF93FF9380E692E00E948004FF9147
:20156000EF91BF91AF919F918F917F916F915F914F913F912F910F900FBE0F901F90189534
:201580001F920F920FB60F9211242F938F939F93EF93FF93E0917002F09171028081E091EB
:2015A0007602F091770282FD1BC09081809179028F5F8F7320917A02821741F0E0917902EF
:2015C000F0E0E05AFD4F958F80937902FF91EF919F918F912F910F900FBE0F901F9018957C
:2015E0008081F4CFCF93DF93E4E5F2E01382128288EE93E0A0E0B0E084839583A683B78314
:201600002CE731E031832083E0E6F2E01382128284839583A683B7838EE891E0918380830E
:2016200085EC90E09587848784EC90E09787868780EC90E0918B808B81EC90E0938B828B8C
:2016400082EC90E0958B848B86EC90E0978B868B118E128E138E148EEDEFF2E080EA91E05D
:201660009183808392E0928380E2A0E0B3E0ED01282F19922A95E9F7A0E2B3E0ED01282F6E
:2016800019922A95E9F71092400310924103A2E4B3E0ED0119928A95E9F7F0936303E09328
:2016A0006203E4E6F3E089E2DF011D928A95E9F78FEF8093730381E080938D0310928E03F1
:2016C00010928F03109290031092910310929203109293031092940310929503109296034E
:2016E00010929703109298031092990310929A0310929B0310929C0310929D0310929E03EE
:2017000010929F031092A0031092A1031092A2031092A3031092A4031092A5031092A6038D
:201720001092A7031092A8031092A9031092AA031092AB031092AC038093AD031092AE03BC
:201740008093AF031092B0031092B1031092B2031092B3031092B4031092B50326E3E6E0E8
:20176000F1E0A7EBB3E001900D922A95E1F71092ED031092EE031092EF031092F0031092BC
:20178000F10326E3E6E0F1E0A2EFB3E001900D922A95E1F7109228041092290410922A045D
:2017A00010922B0410922C0410922D0410922E0410922F0410923004109231041092320485
:2017C00010923304109234041092350410923604109237041092380410923904EAE3F4E064
:2017E00024E3EF0119922A95E9F710926E0423E020936F0440E050E060E871E44093700437
:20180000509371046093720470937304109274041092750410927604109277041092780401
:201820001092790410927A0410927B0410927C0410927D0410927E0410927F041092800494
:20184000E1E8F4E020E131E0DF01E9011D922197E9F710929105109292051092930510927B
:20186000940510929505109296051092970510929A05109299051092DB051092DC051092F0
:20188000DD051092DE051092DF051092E00521E3E1EEF5E0DF01C22F1D92CA95E9F7E2E1AA
:2018A000F6E0DF011D922A95E9F71092440610924306809345061092460610924706109270
:2018C00048061092490610924A0610924B0610924C0610924D0610924E0610924F0610926C
:2018E000500610925106109252061092530610925406109255061092570610925606E8E5E1
:20190000F6E08083918324EA31E0338322831482858316828783DF91CF910895CF93DF93DF
:20192000CDB7DEB7C15AD1090FB6F894DEBF0FBECDBF789484B5836084BD85B5836085BD8A
:2019400080916E00816080936E0012E0109381008091810081608093810080918000816017
:20196000809380008091B10084608093B1008091B00081608093B00087E880937A00109267
:20198000C10061E081E00E94F80160E570E080E090E00E94560360E080E00E94F80181E04D
:2019A0008093450680E692E090939A0580939905E0917002F09171021083E0916C02F091B4
:2019C0006D021082E0916E02F0916F0280E1808310927802E0917402F091750286E080836B
:2019E000E0917202F0917302808188698083E0917202F091730280818F7D8083E1EEF5E088
:201A000081E3DF011D928A95E9F781E096E020EE33E0219331938E179F07D9F71092DD05C5
:201A20001092DE051092DF051092E00588E596E0909344068093430661E080E00E94F8012C
:201A40000091430610914406109201021092000210923102109253020E940C0281E091E02A
:201A60009093DA018093D90182E091E09093DE018093DD0164EF71E080E090E00E94560346
:201A800085E00E948C0087E290E00E9489010E9478026AE070E080E090E00E94560386E0C7
:201AA0000E948C0087E290E00E9489010E9478026AE070E080E090E00E94560381E00E946F
:201AC0008C0087E290E00E9489010E9478026AE070E080E090E00E94560382E00E948C0064
:201AE00087E290E00E9489010E9478026AE070E080E090E00E94560383E00E948C0087E266
:201B000090E00E9489010E9478026AE070E080E090E00E94560384E00E948C0087E290E03D
:201B20000E9489010E9478026AE070E080E090E00E94560385E00E948C0087E290E00E94EA
:201B400089010E9478026AE070E080E090E00E94560386E00E948C0087E290E00E948901E1
:201B60000E9478026AE070E080E090E00E94560381E00E948C0087E290E00E9489010E94AE
:201B800078026AE070E080E090E00E94560382E00E948C0087E290E00E9489010E947802B5
:201BA0006AE070E080E090E00E94560383E00E948C0087E290E00E9489010E9478026AE0C4
:201BC00070E080E090E00E94560384E00E948C0087E290E00E9489010E9478026AE070E09D
:201BE00080E090E00E94560368E270E080E090E00E94560385E00E948C0085E290E00E94A9
:201C000089010E9478026AE070E080E090E00E94560386E00E948C0085E290E00E94890122
:201C20000E9478026AE070E080E090E00E94560381E00E948C0085E290E00E9489010E94EF
:201C400078026AE070E080E090E00E94560382E00E948C0085E290E00E9489010E947802F6
:201C60006AE070E080E090E00E94560383E00E948C0085E290E00E9489010E9478026AE005
:201C800070E080E090E00E94560384E00E948C0085E290E00E9489010E9478026AE070E0DE
:201CA00080E090E00E945603C8010E945F05F801808190E00E94E503D80111968C9190E089
:201CC0000E94E5038CE3ECE3F1E0DE01DD9601900D928A95E1F77E01BDE3EB0EF11C10E0DD
:201CE00000E0C8010E945322F70181937F010F5F1F4F0C331105A9F78DAD9EAD84349844AE
:201D000039F421968EAD9FAD2197029709F48AC20DE011E0CF57DF4F19830883C158D0403C
:201D2000E3E0FCE3B4EA2B2E33243394C12CD12C10E8E12E11E4F12E40E050E060E87FE3ED
:201D40000DEC1CEC2CE43EE380E090E0A0E2B0E4C756DF4F88839983AA83BB83C959D0405C
:201D6000812C912CA12C8FE3B82ECB56DF4F88829982AA82BB82C559D04080E090E0A8EC65
:201D8000B2E4CB57DF4F88839983AA83BB83C558D040812C912C90E2A92E90E4B92EC35776
:201DA000DF4F88829982AA82BB82CD58D0408DEC9CECACE4BFE3CF56DF4F88839983AA8358
:201DC000BB83C159D040ADEC8A2EACEC9A2EA92CADE3BA2EBFE64B2EB2E15B2EB3E06B2E37
:201DE000BCE37B2E8AE097EDA3EABDE3C757DF4F88839983AA83BB83C958D0408AE999E97C
:201E0000A9E9BFE3C358DF4F88839983AA83BB83CD57D040C358DF4F88819981AA81BB81AC
:201E2000CD57D0408093B7039093B803A093B903B093BA03C757DF4F88819981AA81BB81FE
:201E4000C958D0408093BB039093BC03A093BD03B093BE034092BF035092C0036092C103B8
:201E60007092C2038092C3039092C403A092C503B092C603CF56DF4F88809980AA80BB80FC
:201E8000C159D0408092C7039092C803A092C903B092CA03C357DF4F88819981AA81BB8170
:201EA000CD58D0408093CB039093CC03A093CD03B093CE03CB57DF4F88809980AA80BB802D
:201EC000C558D0408092CF039092D003A092D103B092D203CB56DF4F88819981AA81BB8106
:201EE000C559D0408093D3039093D403A093D503B093D603C756DF4F88809980AA80BB80D9
:201F0000C959D0408092D7039092D803A092D903B092DA030093DB031093DC032093DD03F3
:201F20003093DE034093DF035093E0036093E1037093E203C092E303D092E403E092E503E8
:201F4000F092E6032092E7033092E803F093E903E093EA03CF57DF4FA880B980C158D04020
:201F6000B092EC03A092EB03E0914306F0914406C10137FE03C091958195910918161906AE
:201F800014F081E090E09383828390E080E00E94E90181E090E00E94DA018091430690912C
:201FA00044060E945F058DEF92E00E94E1050E94F303E4E6F3E029E2DF011D922A95E9F7ED
:201FC0002FEF2093730360938F03709390038093910390939203609393037093940380930A
:201FE00095039093960360939703709398038093990390939A0360939B0370939C038093AD
:202000009D0390939E0360939F037093A0038093A1039093A2031092A3031092A40310926F
:20202000A5031092A60311E010938D0310928E030E94F3031092A7036093A8037093A90325
:202040008093AA039093AB031092AC031093AD031092AE031092B0031092B1031092B203F6
:202060001092B3031092B4031092B5031092ED031092EE031092EF031092F0031092F10371
:2020800086E3E7EBF3E0A2EFB3E001900D928A95E1F70E9496004091E3035091E40360913F
:2020A000E5037091E6038091EA03811101C081E080936F044093700450937104609372040E
:2020C0007093730490E080E02DE0289FF001299FF00D1124E65CFB4FDF01822E1D928A940E
:2020E000E9F701968430910581F710926E0410927404109275041092760410927704109283
:2021000078041092790410927A0410927B0410927C0410927D0410927E0410927F041092B3
:202120008004109291051092920510929305109294051092950510929605109297051092DC
:202140003E0681E0809352060E94F303609346067093470680934806909349068E010F5F78
:202160001F4FEB961FAF0EAFEB979E012F5D3F4FED963FAF2EAFED97FE01FD9681E3DF0102
:202180001D928A95E9F780904506CF57DF4F8882C158D040882009F495C2809199059091E3
:2021A0009A05892B09F48EC200E0CF56DF4FE883C159D0402F2E8091990590919A05DC010E
:2021C000ED91FC910084F185E02D0995181619060CF075C28091990590919A05DC01ED9105
:2021E000FC910284F385E02D0995182F0E94F3036093DD057093DE058093DF059093E00510
:20220000E091DB05E111C9C0183C31F0812F8B7F8A3E11F01C3E79F681E08093DB0510933A
:202220009B05C9CFE9960EAD1FADE9978CE3FE01FD96DE01119601900D928A95E1F71CAE68
:202240001BAE6CE370E0CE0101960E942E060817190709F05DCD25968CAC9DACAEACBFAC77
:202260002597C358DF4F88829982AA82BB82CD57D04029960CAD1DAD2EAD3FAD2997C757B0
:20228000DF4F088319832A833B83C958D0402D964CAC5DAC6EAC7FAC2D9761968CAC9DAC08
:2022A000AEACBFAC619765962CAD3DAD4EAD5FAD6597CF56DF4F288339834A835B83C15921
:2022C000D04069968CAD9DADAEADBFAD6997C357DF4F88839983AA83BB83CD58D0406D9693
:2022E0000CAD1DAD2EAD3FAD6D97CB57DF4F088319832A833B83C558D040A1962CAD3DAD87
:202300004EAD5FADA197CB56DF4F288339834A835B83C559D040A5968CAD9DADAEADBFAD6A
:20232000A597C756DF4F88839983AA83BB83C959D040A9960CAD1DAD2EAD3FADA997AD9646
:202340004CAD5DAD6EAD7FADAD97E196CCACDDACEEACFFACE197E2962FACE297E3963FAC8A
:20236000E397E496FFADE497E596EFADE597E796AEADBFADE797CF57DF4FB983A883C15819
:20238000D040AB2B09F046CD8DE091E0CF57DF4F99838883C158D0403DCDE13091F48EEFAC
:2023A000810F8D3328F01092DB051092DC0503CFB2E0B093DB0510939C051E5F1093DC05E4
:2023C000FACE81E08E0F8093DB05F0E0E756FA4F12839091DC05891708F4EDCE81E3E1EECD
:2023E000F5E0DE01119601900D928A95E1F79530D0F280919C0522E0280F9213D4CFE92F89
:20240000F0E0E656FA4F40815FEF580FEDE9F5E020E090E0251778F43191932738E097FF04
:2024200008C0990FA5ED8A2E98253150C1F72F5FF1CF990FFACF4913B6CF90919D059631C2
:2024400009F07EC08851823008F0ADCFDE01119690E080E040E050E0BA01E92FF0E0E256C5
:20246000FA4F8B30A8F4963199F09F5F019110E030E020E0082E04C0000F111F221F331F10
:202480000A94D2F7402B512B622B732B885FE9CF9A0137702D933D93EBE076956795579594
:2024A0004795EA95D1F78B50ED96AEACBFACED97AA15BB0591F660E089819A810E940F0531
:2024C0006B017C0161E08B819C810E940F052B013C0161E08F8198850E940F054B015C01BD
:2024E0000E94F303C9A2DAA2EBA2FCA24DA25EA26FA278A689A69AA6ABA6BCA621E02DA71D
:202500006EA77FA788AB99AB81E3FE013196A1EEB5E001900D928A95E1F781E3E1EEF5E08C
:20252000CF56DF4FA881C159D040B22D01900D928A95E1F7CF57DF4F0881C158D04033CFE7
:20254000973109F030CF7EEFB72EB80EEE96BFAEEE971B2D123008F426CF20919E05022F2D
:202560000F71CB57DF4F0883C558D04030E045E0359527954A95E1F7122F1370165FC12E39
:20258000D12C835028E0829FC0011124B6010E945B22CB56DF4F6883C559D040AA24A39409
:2025A000B12C012E02C0AA0CBB1C0A94E2F731E0A31AB108802F90E04C01880C991CC757EF
:2025C000DF4F99828882C958D040912C812C3324339400E080E090E0DC01950150E040E07C
:2025E000C357DF4F288339834A835B83CD58D040282DCB56DF4F3881C559D040831608F030
:202600005ACFE32DF0E0E256FA4F0117C0F4EE964FADEE97341698F43394419150E070E070
:2026200060E0002E04C0440F551F661F771F0A94D2F7842B952BA62BB72B085FE6CF2C01B4
:202640003D010C2C04C076946794579447940A94D2F7011BCB57DF4F5881C558D040250F68
:20266000203138F57401EE0CFF1CC757DF4FE881F981C958D040EE0EFF1E21E030E02C0F8D
:202680003D1FE20EF31E950128233923A7E6B6E00E94B822C357DF4F288139814A815B81AF
:2026A000CD58D0400E946F2224553F4FD7012D933C93BFEF8B1A9B0AD301C20199CF01113B
:2026C0000C9441220E94F3032B013C018091620390916303DC01ED91FC910680F781E02D06
:2026E000B301A2010995FE0133968AE1DF011D928A95E9F781E089838A838C8382E08D8329
:2027000011E08091620390916303DC01ED91FC910284F385E02DBE016F5F7F4F0995882334
:2027200009F4FEC08C818230C9F0813051F78D81823039F78091A3039091A403A091A50325
:20274000B091A6030196A11DB11D8093A3039093A403A093A503B093A603D3CF8E81909150
:202760008E03891771F280938E03409285035092860360928703709288038A81863059F148
:20278000A0F4823029F1843009F0BBCF8885823008F4B7CF89858093720381E09A859111A9
:2027A00001C080E080936803ACCF873239F18832D9F18D3009F0A5CF8885882309F4A1CF49
:2027C00081E09985911101C080E08093670399CF1093650396CF8885843008F492CF898536
:2027E0009A85AB85BC8580936E0390936F03A0937003B09371031093660383CF88858230B6
:2028000008F47FCF898580937403815091E0823008F090E090936D0381E09A85911101C004
:2028200080E080936C036DCF88858A3008F469CF8985982F91709093690381FB992790F955
:2028400090936A0382FB992790F990936B0383FB882780F980936C036A857B85072E000C39
:20286000880B990B0E9404242AE037ED43E25CE30E94B924609375037093760380937703D2
:20288000909378036C857D85072E000C880B990B0E9404242DEC3CEC4CEC5DE30E94B9242D
:2028A0006093790370937A0380937B0390937C036E857F85072E000C880B990B0E940424BD
:2028C0002AE037ED43E25CE30E94B92460937D0370937E0380937F039093800368897989C2
:2028E000072E000C880B990B0E9404242AE037ED43E25CE30E94B924609381037093820386
:2029000080938303909384038A89809373034092890350928A0360928B0370928C03F1CE3B
:202920008091850390918603A0918703B09188030097A105B10561F0B301A201481B590B6B
:202940006A0B7B0B81E0453F51406105710508F080E08093640380916503811123C0809159
:202960008F0390919003A0919103B091920353014201881A990AAA0ABB0AD501C401883CC2
:202980009105A105B10570F040E070E060E081E00E94450640928F03509290036092910388
:2029A0007092920380916503882339F180916603811123C08091970390919803A09199030F
:2029C000B0919A0393018201081B190B2A0B3B0BD901C80188379105A105B10570F040E06C
:2029E00070E060E085E00E94450640929703509298036092990370929A03809165038823BB
:202A000019F18091970390919803A0919903B0919A03A3019201281B390B4A0B5B0BDA0146
:202A2000C901883C9105A105B10570F040E070E060E083E00E9445064092970350929803CD
:202A40006092990370929A0380916503882319F18091930390919403A0919503B091960319
:202A600053014201881A990AAA0ABB0AD501C40184369105A105B10570F040E070E060E0AA
:202A800087E00E944506409293035092940360929503709296038091740490917504A09188
:202AA0007604B09177040097A105B10581F0B301A201481B590B6A0B7B0B80916F0490E06F
:202AC000B0E0A0E0481759076A077B07F0F0E0914306F09144064092740450927504609238
:202AE00076047092770410916E0481E0810F837080936E04113009F4AEC508F468C4123048
:202B000009F4ACC5133009F4AEC56091520620916403409165034111409166035091670323
:202B200051115091680330916903332349F030916B03332329F080916C0381110C944C226D
:202B4000222311F40C94502290916C039923C1F08091B003813011F00C9450229091A703C9
:202B60008093AC03953059F085E08093A7034092A8035092A9036092AA037092AB0391E098
:202B80008091A703823009F4F1C508F0A0C5882309F4B5C5813009F4C5C58091AD0380938A
:202BA000AF03882391F080914306909144060E945F0570E060E081E090E00E94C50370E051
:202BC00060E082E090E00E94C50310913E061123B1F080913F0690914006A0914106B09149
:202BE0004206A3019201281B390B4A0B5B0BDA01C90101E081399140A105B10508F000E0CF
:202C00008091460690914706A0914806B09149060097A105B10509F41EC653014201881ACD
:202C2000990AAA0ABB0AD501C401892B8A2B8B2B09F40CC6B401C501693271058105910547
:202C400020F068E270E080E090E00E9402242FE632E143E85AE30E94B924C358DF4F6883EF
:202C600079838A839B83CD57D0409090AF03C757DF4F9882C958D040112349F011E0809121
:202C80002406909125068431954008F410E01092B0031092B1031092B2031092B30310924C
:202CA000B4031092B503C757DF4F8880C958D04081101DC6002309F41AC6509164034091F1
:202CC0006A0330916C0320916D03909173038091E9031092F0031111CFC51092ED03109223
:202CE000EE031092EF031092F1038091EF0381110E94960080903A0690903B06A0903C06C9
:202D0000B0903D068091F003C256DF4F8882CE59D040C156DF4F9882CF59D040C056DF4FCA
:202D2000A882C05AD040CF55DF4FB882C15AD040882309F454C08091890390918A03A09150
:202D40008B03B0918C034FEF50E060E070E00097A105B10531F0B301A201481B590B6A0B70
:202D60007B0B8091E90390E0B0E0A0E084179507A607B70708F4FCC580916A03882309F4CB
:202D8000F7C58091750390917603A0917703B09178038093280490932904A0932A04B093BA
:202DA0002B0410922C0410922D0410922E0410922F0410923004109231041092320410926F
:202DC00033041092340410923504109236041092370410923804109239041092F0038091EB
:202DE000ED03882389F02DEC3CEC4CE45EE3C501B4019F770E94B42418160CF0C2C50E94AF
:202E0000960081E0809353068091ED038823C1F020E030E040E05FE3C501B4010E94B4248B
:202E2000181614F40C94F92020E030E040E05FEBC501B4010E94552387FF02C00C9400218B
:202E400020913206309133064091340650913506CF57DF4F288339834A835B83C158D040D9
:202E6000C0903606D0903706E0903806F090390620E030E040E85FEBCF57DF4F6881798103
:202E80008A819B81C158D0400E94552387FF02C00C94072120E030E040E85FE3CF57DF4FEA
:202EA000688179818A819B81C158D0400E94B424181664F480E090E0A0E8BFE3CF57DF4F91
:202EC00088839983AA83BB83C158D0402DEC3CEC4CE45DE3CF57DF4F688179818A819B8128
:202EE000C158D0409F770E94552387FF08C0CF57DF4F188219821A821B82C158D04020E040
:202F000030E040E85FEBC701B6010E94552387FF02C00C94152120E030E040E85FE3C70136
:202F2000B6010E94B424181634F4C12CD12CE0E8EE2EEFE3FE2E2DEC3CEC4CE45DE3C701C5
:202F4000B6019F770E94552387FF03C0C12CD12C760120E030E040E85FEBC501B4010E9441
:202F6000552387FF02C00C941D2120E030E040E85FE3C501B4010E94B424181634F4812C41
:202F8000912C60E8A62E6FE3B62E2DEC3CEC4CE45DE3C501B4019F770E94552387FF03C07D
:202FA000812C912C5401CF57DF4F288139814A815B81C158D040CA01B9010E94B924C358AC
:202FC000DF4F688379838A839B83CD57D040A7019601C701B6010E94B9249B01AC01C358DC
:202FE000DF4F688179818A819B81CD57D0400E94E9220E942C25C358DF4F688379838A8388
:203000009B83CD57D04020E030E040E85FE30E94B424181644F5C358DF4F288139814A818C
:203020005B81CD57D040CF57DF4F688179818A819B81C158D0400E945A23CF57DF4F68839B
:2030400079838A839B83C158D040C358DF4F288139814A815B81CD57D040C701B6010E9478
:203060005A236B017C01A7019601CF57DF4F688179818A819B81C158D0400E94E922C75759
:20308000DF4F688379838A839B83C958D040A50194010E94E922C358DF4F688379838A839A
:2030A0009B83CD57D040CF57DF4F288139814A815B81C158D040C701B6010E94E8226B01A0
:2030C0007C01A50194010E94E822CB57DF4F688379838A839B83C558D040A7019601C501F8
:2030E000B4010E94E922CB56DF4F688379838A839B83C559D040A5019401C757DF4F68816F
:2031000079818A819B81C958D0400E94E822C757DF4F688379838A839B83C958D040C35807
:20312000DF4F88809980AA80BB80CD57D040E894B7F8CB57DF4FC880D980EA80FB80C55889
:20314000D040E894F7F8A7019601C501B4010E94552387FD02C075016401CB56DF4F8880A8
:203160009980AA80BB80C559D040E894B7F8A7019601C501B4010E94B424181614F04601CB
:203180005701C757DF4FC880D980EA80FB80C958D040E894F7F8A5019401C701B6010E940D
:2031A000B424181614F07501640120E030E040E85FE3C701B6010E94552387FF06C0C12CDE
:2031C000D12C40E8E42E4FE3F42EA7019601C358DF4F688179818A819B81CD57D0400E94FC
:2031E0005A2320E030E048EC52E40E94B9240E94CC23C357DF4F688379838A839B83CD5849
:20320000D040C357DF4F88809980CD58D040CF57DF4F99828882C158D040A7019601CB57FD
:20322000DF4F688179818A819B81C558D0400E945A2320E030E048EC52E40E94B9240E946F
:20324000CC23CB57DF4F688379838A839B83C558D040CB57DF4FA880B980C558D040EF968D
:20326000BFAEAEAEEF97A7019601CB56DF4F688179818A819B81C559D0400E945A2320E01A
:2032800030E048EC52E40E94B9240E94CC234B011B01A7019601C757DF4F688179818A81C3
:2032A0009B81C958D0400E945A2320E030E048EC52E40E94B9240E94CC238B01C0904306F3
:2032C000D0904406D60114962C91222379F0C357DF4FE881F981CD58D040F195E195F10902
:2032E000CF57DF4FF983E883C158D040D60115962C91222369F0CB57DF4FE881F981C5583D
:20330000D040F195E195F109EF96FFAFEEAFEF97D60116962C91222321F0222433242818DE
:203320003908F6012781222321F000271127061B170BD6011296ED90FC90B701CF57DF4F21
:2033400088819981C158D0400E946C05CF57DF4F688379838A839B83C158D040B701EF9642
:203360008EAD9FADEF970E946C05C358DF4F688379838A839B83CD57D040B701C1010E9482
:203380006C054B015C01B701C8010E946C05AB01BC01F6018081C358DF4F088119812A8107
:2033A0003B81CD57D04090E00E948803D60111968C91CF57DF4F088119812A813B81C158EE
:2033C000D040B501A40190E00E948803A4C20481818162E070E090E00E9486066B017C01DF
:2033E000002341F0F094E094D094C094C11CD11CE11CF11C212E312C0DE0109FC0011124B7
:20340000FC01E65CFB4F2081222309F463C083509D4FFC01EA5BFE4F408151816281738165
:2034200053014201841A950AA60AB70A09F452C08C010E5B1E4F825C9E4FFC0180819181FA
:20344000A281B381A7019601281B390B4A0B5B0BCA01B9010E940424CF57DF4F688379830A
:203460008A839B83C158D040C501B4010E9402249B01AC0160E070E08AE794E40E945A23D4
:203480009B01AC01CF57DF4F688179818A819B81C158D0400E94B92423E333E343EB5EE352
:2034A0000E94B9244B015C0126E636E646E25FE3D8016D917D918D919C910E94B9249B0107
:2034C000AC01C501B4010E94E922F80160837183828393832DE0229DC001239D900D11240D
:2034E000FC01E65CFB4F21E0208383509D4FFC01E25CFE4FC082D182E282F3828A5B9E4F18
:20350000DC014D925D926D927C921397EAE3F4E08081882309F4F9CA3D96B4E0EE36FB07AF
:20352000B9F7C0903F04D0904004E0904104F090420480904C0490904D04A0904E04B09096
:203540004F04CF57DF4F88829982AA82BB82C158D0408090590490905A04A0905B04B09053
:203560005C0400916604109167042091680430916904C358DF4F088319832A833B83CD579A
:20358000D040CF57DF4F288139814A815B81C158D040C701B6010E94E822A50194010E948C
:2035A000E922C358DF4F288139814A815B81CD57D0400E94E82220E030E040E85EE30E94B2
:2035C000B924CB57DF4F688379838A839B83C558D040609378047093790480937A049093DC
:2035E0007B04C701B6019F77A50194015F770E94E9224B015C01CF57DF4F688179818A810E
:203600009B81C158D0409F77C358DF4F288139814A815B81CD57D0405F770E94E922CF571F
:20362000DF4F688379838A839B83C158D0409B01AC01C501B4010E94E9226B017C0120E0C7
:2036400030E040E85FE30E94B42418167CF060E070E0CB011BC005818081BBCE068181810C
:2036600061E070E0B8CE07818081FACFCF57DF4F288139814A815B81C158D040C501B401DF
:203680000E94E822A70196010E945A2360937C0470937D0480937E0490937F04CB57DF4F9E
:2036A000688179818A819B81C558D0409F7711E020917004309171044091720450917304D2
:2036C0000E94B42487FD10E0109380041ECA843009F4AAC008F46DC0853009F05ECA81E072
:2036E0008093AD038093AE0391115EC01092AC03222359F04423D1F0511166C03EC081E095
:203700008093AD03662309F44FC08093A7034092A8035092A9036092AA037092AB03109298
:20372000AE033BCA8093AD03222311F082E0EDCF8091A8039091A903A091AA03B091AB0356
:2037400053014201881A990AAA0ABB0AD501C401813D9740A105B10538F14092A803509200
:20376000A9036092AA037092AB0317CA81E08093AD03222351F2442311F083E0C6CF809150
:20378000A8039091A903A091AA03B091AB03A3019201281B390B4A0B5B0BDA01C901893B02
:2037A0009B40A105B105C8F68091AD038093AF03FAC981E08093AD03222309F4A6CF442389
:2037C00009F4B4CF552381F084E08093A7034092A8035092A9036092AA037092AB03109263
:2037E000AE031092AD03D9C988E99AE3A0E0B0E0311104C088EB9BE0A0E0B0E04091A803A6
:203800005091A9036091AA037091AB0353014201841A950AA60AB70AB501A40184179507F7
:20382000A607B70708F699CF211104C081E08093AD036BCF411104C081E08093AD0376CFE4
:203840005111CFCF81E08093AD0397CF61E070E080E090E0FAC9BAE08B2EB7ED9B2EB3EA5D
:20386000AB2EBBE3BB2EC358DF4F88829982AA82BB82CD57D040F9C95523B9F04423B9F0EA
:20388000311117C0211117C08917B8F483E09091EE0391111BC091E09093EE0381110FC0E2
:2038A0009093ED039093F00320CA81E0F0CF82E0EECF84E0ECCF85E0EACF80E0E8CF1092C0
:2038C000ED039093EF038093F1030FCA9091EF03992319F01092ED0308CA882321F0109269
:2038E000ED0391E0EECF81E08093ED03FEC91092ED031092EE031092EF031092F00310928F
:20390000F1030E9496001092530680914306909144060E945F05F0903E06FF20C1F0809110
:203920003F0690914006A0914106B091420653014201881A990AAA0ABB0AD501C401FF24C7
:20394000F39481399140A105B10508F0F12C9091B0038091A703823009F4AAC408F075C407
:20396000882309F487C4813009F493C410E09EC41092ED031092EE031092EF031092F103AE
:203980002CCAC0907503D0907603E0907703F090780380915306882331F1C0922804D09294
:2039A0002904E0922A04F0922B0410922C0410922D0410922E0410922F04109230041092C3
:2039C000310410923204109233041092340410923504109236041092370410923804109213
:2039E00039041092530620E030E0A901C358DF4F688179818A819B81CD57D0400E94552334
:203A0000812C912C540118160CF089C3A7019601609128047091290480912A0490912B0458
:203A20000E94E8226B017C0120E030E044E353E40E94B42418163CF420E030E044EB53E435
:203A4000C701B601EDCF20E030E044E353ECC701B6010E94552387FF0BC020E030E044EB8C
:203A600053E4C701B6010E94E9226B017C01EBCF8090780490907904A0907A04B0907B04AA
:203A8000C756DF4F88829982AA82BB82C959D0408090790390907A03A0907B03B0907C0385
:203AA000C357DF4F88829982AA82BB82CD58D040970186013F77CB56DF4F088319832A8303
:203AC0003B83C559D04080902C0490902D04A0902E04B0902F042091120430911304409124
:203AE000140450911504C358DF4F688179818A819B81CD57D0400E94B924CF57DF4F68836F
:203B000079838A839B83C158D04020913004309131044091320450913304CB57DF4F288360
:203B200039834A835B83C558D04020910204309103044091040450910504CB56DF4F688177
:203B400079818A819B81C559D0400E94552318160CF46DC02091060430910704409108043D
:203B600050910904C357DF4F688179818A819B81CD58D0409F770E94552318160CF457C05B
:203B800020911E0430911F044091200450912104C756DF4F688179818A819B81C959D040EC
:203BA0009F770E94552318160CF441C023E333E343E75FE3C501B4010E94B92460932C0401
:203BC00070932D0480932E0490932F04CB57DF4F288139814A815B81C558D04060E070E0FF
:203BE000CB010E94E8226B017C01CF57DF4F288139814A815B81C158D0400E94B424181635
:203C00000CF0D2C2CB57DF4F288139814A815B81C558D040CF57DF4F688179818A819B812F
:203C2000C158D0400E94E9224B015C0170C22091F6033091F7034091F8035091F903C701FD
:203C4000B6010E94B924C358DF4F288139814A815B81CD57D0400E94B924A50194010E944B
:203C6000E9221B018C0180900A0490900B04A0900C04B0900D04D501C401B058C358DF4FC6
:203C800088839983AA83BB83CD57D0409C01AD01B101C8010E94552387FD5FC2A50194019E
:203CA000B101C8010E94B424181614F41401850120917C0430917D0440917E0450917F0414
:203CC000CF56DF4F288339834A835B83C159D040C101D80180932C0490932D04A0932E04BE
:203CE000B0932F042091F2033091F3034091F4035091F503C701B6010E94B9249101A80117
:203D00000E94E9221B018C019B01AC01C358DF4F688179818A819B81CD57D0400E94B42403
:203D200018160CF42BC29101A801C501B4010E94552387FF02C014018501C357DF4F2881C4
:203D400039814A815B81CD58D040B101C8010E94E8222091FA033091FB034091FC03509188
:203D6000FD030E94B9244B015C012091FE033091FF034091000450910104CF56DF4F6881AF
:203D800079818A819B81C159D0400E94B924C358DF4F688379838A839B83CD57D04020E0CA
:203DA00030E0A901B101C8010E94B42420E030E040E85FE3181684F020E030E0A901B101CC
:203DC000C8010E94552320E030E040E85FEB87FD03C020E030E0A901C358DF4F6881798151
:203DE0008A819B81CD57D0400E94B9249B01AC01C501B4010E94E8224B015C01EE966FAF2E
:203E0000EE97C357DF4F9882CD58D040CF56DF4F8883C159D040C356DF4FB882CD59D04047
:203E200020911A0430911B0440911C0450911D04CB56DF4F688179818A819B81C559D04059
:203E40000E94B42487FD78C0C756DF4F688179818A819B81C959D0409F7720911E043091FB
:203E60001F0440912004509121040E94552387FF63C08091160490911704A0911804B0916C
:203E80001904C756DF4F88839983AA83BB83C959D040C501B4019F77C756DF4F28813981B7
:203EA0004A815B81C959D0400E94552387FF44C020E030E0A901B101C8010E94552388238B
:203EC00011F06101780120E030E0A901C701B6010E94B42420E030E040E85FE3181684F037
:203EE00020E030E0A901C701B6010E94552320E030E040E85FEB87FD03C020E030E0A901EC
:203F0000C756DF4F688179818A819B81C959D0400E94B924EE966FAFEE97C357DF4F788331
:203F2000CD58D040CF56DF4F8883C159D040C356DF4F9883CD59D040C0900E04D0900F0457
:203F4000E0901004F090110446015701B7FAB094B7F8B094EE962FADEE97C357DF4F3881DB
:203F6000CD58D040CF56DF4F4881C159D040C356DF4F5881CD59D040C501B4010E94B4247B
:203F8000181664F1EE962FADEE97C357DF4F3881CD58D040CF56DF4F4881C159D040C35624
:203FA000DF4F5881CD59D040C701B6010E9455234601570187FD12C0EE968FACEE97C357D8
:203FC000DF4F9880CD58D040CF56DF4FA880C159D040C356DF4FB880CD59D0407501640131
:203FE000E894F7F820E030E040E05FE3609134047091350480913604909137040E94E9222D
:204000009B01AC01CB56DF4F688179818A819B81C559D0400E94B4241816DCF401E0C75759
:20402000DF4F0883C958D04020E030E040E051E4CB56DF4F688179818A819B81C559D040AA
:204040000E94B42487FF05C0C757DF4F1882C958D040CB56DF4F288139814A815B81C5590D
:20406000D04020933404309335044093360450933704109138042AE939E949E15EE3C701D9
:20408000B6010E94B42487FD8AC0C757DF4F0881C958D040002309F482C01F3F19F01F5FD4
:2040A0001093380480913804843118F081E08093390480913904CB57DF4F288139814A819A
:2040C0005B81C558D040811189CDC501B4010E94E8226B017C01CF57DF4F288139814A815D
:2040E0005B81C158D0400E94B42418160CF48ACDCF57DF4F288139814A815B81C158D04035
:204100005058C701B6010E94552387FD5FC08092300490923104A0923204B092330480912C
:204120003904882311F40C9404170E949600C256DF4F8880CE59D040C156DF4F9880CF5995
:20414000D040C056DF4FA880C05AD040CF55DF4FB880C15AD0400C940417EE962FACEE9765
:20416000EF963FACEF97C158DF4F0881CF57D040C058DF4F1881C058D0409ACDEE962FAC76
:20418000EE97EF963FACEF97C158DF4F0881CF57D040C058DF4F1881C058D040CECD1123C8
:2041A00009F480CF11507CCFCF57DF4F288139814A815B81C158D0405058C701B6010E94B7
:2041C0005523812C912C540187FFA1CFCF57DF4F288139814A815B81C158D040CB57DF4FDB
:2041E000688179818A819B81C558D0400E94E8221BCD812C912CA12CAFE3BA2E0C9420176C
:20420000812C912CA12CFFEBBF2E0C94201700E010E020E83FEBCF57DF4F088319832A838F
:204220003B83C158D0400C946617C12CD12C70E8E72E7FEBF72E0C949B17812C912C50E8A0
:20424000A52E5FEBB52E0C94C517843009F4CEC008F4BCC0853009F089CBC301B20124EBA3
:2042600030E040E050E00E946F2211E06A357105E8F07CCBC301B20128EE33E040E050E096
:204280000E946F2221E06837710508F4ACC020E0AAC0C301B20120E233E040E050E00E9485
:2042A0006F2211E0643B710508F060CB80E012C0C301B2012CE231E040E050E00E946F22F9
:2042C00081E06639710508F080E011E06639710508F410E090E00E94E901812F90E00E9460
:2042E000DA01E090AF0381E0E8268091430690914406892B09F0AFC010E000E08091540636
:20430000E81220C080915506F8121CC0809156069091570680179107A9F480914E06909134
:204320004F06A0915006B0915106A3019201281B390B4A0B5B0BDA01C90184369105A105F5
:20434000B10560F184E1EB96AEADBFADEB971D928A95E9F7EE2011F081E08983FF2019F0D5
:204360008981826089830A831B8343E0BE016F5F7F4F80E20E944506882381F040924E060B
:2043800050924F066092500670925106E0925406F09255061093570600935606409246068F
:2043A00050924706609248067092490680E090E0892B11F40C94BC100E946C04882311F486
:2043C0000C94BC100E9400000C94BC10C301B2012CED30E040E050E00E946F2221E06E369B
:2043E000710508F054CF822F122F74CFF1100FC0C301B20124EF31E040E050E00E946F2209
:2044000021E06837710508F020E0822F62CF10E081E0913009F05ECF34E8832E33E0932ED3
:20442000A12CB12CC301B201A50194010E946F222F2D6A357105B8F2C301B20160567F4FD7
:204440008F4F9F4FA50194010E946F2221E06A35710548F21CCF80E480937C0080917A0069
:20446000806480937A0080917A0086FDFCCF80917800909179008C01000F111F96FF3ECF61
:204480003BCF81E3FE01FD96A2E1B6E001900D928A95E1F70C94621330E021110C94A81528
:2044A00090E00C94C015F999FECF92BD81BDF89A992780B5089597FB072E16F4009407D0CB
:2044C00077FD09D00E94CE2207FC05D03EF4909581959F4F0895709561957F4F0895A1E244
:2044E0001A2EAA1BBB1BFD010DC0AA1FBB1FEE1FFF1FA217B307E407F50720F0A21BB30B5B
:20450000E40BF50B661F771F881F991F1A9469F760957095809590959B01AC01BD01CF0119
:204520000895052E97FB1EF400940E94A82257FD07D00E946F2207FC03D04EF40C94A82227
:2045400050954095309521953F4F4F4F5F4F089590958095709561957F4F8F4F9F4F089543
:204560000E94B822332312F48A1B9B0B0C94C922A29FB001B39FC001A39F700D811D1124F6
:20458000911DB29F700D811D1124911D08950E94B822B7FF0895821B930B0895AA1BBB1B3F
:2045A00051E107C0AA1FBB1FA617B70710F0A61BB70B881F991F5A95A9F780959095BC017C
:2045C000CD010895EE0FFF1F0590F491E02D09945058BB27AA270E9400230C947A240E9491
:2045E0006C2438F00E94732420F039F49F3F19F426F40C9469240EF4E095E7FB0C946324DB
:20460000E92F0E948B2458F3BA17620773078407950720F079F4A6F50C94AD240EF4E0950B
:204620000B2EBA2FA02D0B01B90190010C01CA01A0011124FF27591B99F0593F50F4503EF9
:2046400068F11A16F040A22F232F342F4427585FF3CF469537952795A795F0405395C9F7C0
:204660007EF41F16BA0B620B730B840BBAF09150A1F0FF0FBB1F661F771F881FC2F70EC007
:20468000BA0F621F731F841F48F4879577956795B795F7959E3F08F0B0CF9395880F08F058
:2046A0009927EE0F9795879508950E943F2408F481E008950E946E230C947A240E947324AF
:2046C00058F00E946C2440F029F45F3F29F00C94632451110C94AE240C9469240E948B24E3
:2046E00068F39923B1F3552391F3951B550BBB27AA2762177307840738F09F5F5F4F220FBD
:20470000331F441FAA1FA9F335D00E2E3AF0E0E832D091505040E695001CCAF72BD0FE2F59
:2047200029D0660F771F881FBB1F261737074807AB07B0E809F0BB0B802DBF01FF279358A3
:204740005F4F3AF09E3F510578F00C9463240C94AE245F3FE4F3983ED4F386957795679518
:20476000B795F7959F5FC9F7880F911D9695879597F90895E1E0660F771F881FBB1F621724
:2047800073078407BA0720F0621B730B840BBA0BEE1F88F7E09508950E94D3236894B11100
:2047A0000C94AE2408950E94932488F09F5798F0B92F9927B751B0F0E1F0660F771F881FC8
:2047C000991F1AF0BA95C9F714C0B13091F00E94AD24B1E008950C94AD24672F782F8827D4
:2047E000B85F39F0B93FCCF3869577956795B395D9F73EF490958095709561957F4F8F4F74
:204800009F4F0895E89409C097FB3EF490958095709561957F4F8F4F9F4F9923A9F0F92FB8
:2048200096E9BB279395F695879577956795B795F111F8CFFAF4BB0F11F460FF1BC06F5F66
:204840007F4F8F4F9F4F16C0882311F096E911C0772321F09EE8872F762F05C0662371F0B1
:2048600096E8862F70E060E02AF09A95660F771F881FDAF7880F9695879597F90895990FF6
:204880000008550FAA0BE0E8FEEF16161706E807F907C0F012161306E407F50798F0621B2D
:2048A000730B840B950B39F40A2661F0232B242B252B21F408950A2609F4A140A6958FEF37
:2048C000811D811D089597F99F6780E870E060E008959FEF80EC089500240A941616170632
:2048E00018060906089500240A9412161306140605060895092E0394000C11F4882352F05D
:20490000BB0F40F4BF2B11F460FF04C06F5F7F4F8F4F9F4F089557FD9058440F551F59F036
:204920005F3F71F04795880F97FB991F61F09F3F79F087950895121613061406551FF2CFDA
:204940004695F1DF08C0161617061806991FF1CF86957105610508940895E894BB276627EA
:204960007727CB0197F908950E943F2408F48FEF08950E94CC240C947A240E946C2438F05A
:204980000E94732420F0952311F00C9463240C94692411240C94AE240E948B2470F3959F32
:2049A000C1F3950F50E0551F629FF001729FBB27F00DB11D639FAA27F00DB11DAA1F649FE1
:2049C0006627B00DA11D661F829F2227B00DA11D621F739FB00DA11D621F839FA00D611D89
:2049E000221F749F3327A00D611D231F849F600D211D822F762F6A2F11249F5750409AF09A
:204A0000F1F088234AF0EE0FFF1FBB1F661F771F881F91505040A9F79E3F510580F00C94C5
:204A200063240C94AE245F3FE4F3983ED4F3869577956795B795F795E7959F5FC1F7FE2B15
:204A4000880F911D9695879597F9089519F416F40C9469240C946C250E949324B8F3992368
:204A6000C9F3B6F39F57550B87FF0E947A250024A0E640EA900180585695979528F4805C68
:204A8000660F771F881F20F026173707480730F4621B730B840B202931294A2BA6951794DE
:204AA0000794202531254A2758F7660F771F881F20F026173707480730F4620B730B840BD6
:204AC000200D311D411DA09581F7B901842F9158880F9695879508959F3F31F0915020F48B
:204AE000879577956795B795880F911D9695879597F9089591505040660F771F881FD2F7A1
:204B000008950F931F93CF93DF938230910510F482E090E0E0916206F091630630E020E0DF
:204B2000B0E0A0E0309799F42115310509F44AC0281B390B24303105D8F58A819B81611523
:204B4000710589F1FB0193838283FE0111C0408151810281138148175907E0F04817590786
:204B600099F4109761F012960C93129713961C933296CF01DF91CF911F910F910895009380
:204B8000620610936306F4CF2115310551F04217530738F0A901DB019A01BD01DF01F8019E
:204BA000C1CFEF01F9CF9093630680936206CDCFFE01E20FF31F8193919322503109398368
:204BC0002883D7CF2091600630916106232B41F42091020130910301309361062093600606
:204BE00020910001309101012115310541F42DB73EB74091040150910501241B350BE09119
:204C00006006F0916106E217F307A0F42E1B3F0B2817390778F0AC014E5F5F4F24173507C6
:204C200048F04E0F5F1F5093610640936006819391939FCFF0E0E0E09CCFCF93DF930097D2
:204C4000E9F0FC01329713821282A0916206B0916306ED0130E020E01097A1F420813181BC
:204C6000820F931F20916006309161062817390709F061C0F0936106E0936006DF91CF9186
:204C80000895EA01CE17DF07E8F54A815B819E0141155105B1F7E901FB83EA8349915991B1
:204CA000C40FD51FEC17FD0761F4808191810296840F951FE90199838883828193819B8399
:204CC0008A83F0E0E0E012968D919C9113970097B9F52D913C911197CD010296820F931F79
:204CE00020916006309161062817390739F6309751F51092630610926206B0936106A093C8
:204D00006006BCCFD383C28340815181840F951FC817D90761F44E5F5F4F88819981480F44
:204D2000591F518340838A819B81938382832115310509F0B0CFF0936306E09362069ECF0A
:204D4000FD01DC01C0CF13821282D7CFFB01DC0102C001900D9241505040D8F70895F89436
:204D6000FFCF0000640680009A99993F0AD7A33D6F12033CCDCCCC3DCDCC4C3F00002040C9
:204D80000000C8420000003F00002040CDCC4C3E0000803F00008041A4013C030D01444849
:204DA00002009A99993F0AD7A33D6F12033CCDCCCC3DCDCC4C3F000020400000C842000035
:204DC000003F00002040CDCC4C3E0000803F00008041A4013C030D010000000000005A0144
:204DE0002D012C04030126011301040100000000A204FF032F04EF0460043E045204000047
:104E0000000093052309E1059705CC077F08940569
:00000001FF
